:020000040800F2
:100000000080012075250008652300086D23000885
:10001000752300087D2300088523000800000000E8
:100020000000000000000000000000008D23000818
:100030009B23000800000000A9230008B723000844
:10004000C5250008C5250008C5250008C5250008E8
:10005000C5250008C5250008C5250008C5250008D8
:10006000C5250008C5250008C5250008C5250008C8
:10007000C5250008C5250008C5250008C5250008B8
:10008000C5250008C5250008C5250008000000009A
:10009000000000000000000000000000C52500086E
:1000A000C5250008C5250008C5250008C525000888
:1000B000C5250008C5250008C5250008C525000878
:1000C000C5250008C5250008C5250008C525000868
:1000D000C5250008C5250008C5250008000000004A
:1000E000C5250008C5250008C5250008000000003A
:1000F000000000000000000000000000C52500080E
:1001000000000000C5250008C5250008C525000819
:1001100000000000000000000000000000000000DF
:10012000C5250008C5250008C5250008C525000807
:10013000C5250008000000000000000000000000CD
:10014000000000000000000000000000C5250008BD
:10015000C5250008C5250008C5250008C5250008D7
:10016000C5250008C52500080000000000000000AB
:10017000000000000000000000000000000000007F
:1001800000000000C525000800000000000000007D
:04019000C525000879
:1001A00010B5054C237833B9044B13B10448AFF3B1
:1001B00000800123237010BDD80100200000000042
:1001C000CC79000808B5034B1BB103490348AFF3D2
:1001D000008008BD00000000DC010020CC79000890
:1001E00001F0FF01102A2BDB10F0070F08D010F8E8
:1001F000013B013A8B422DD010F0070F42B3F6D1EC
:10020000F0B441EA012141EA014122F007047FF004
:1002100000070023F0E80256083C85EA010586EA5B
:10022000010685FA47F5A3FA87F586FA47F6A5FA97
:1002300087F68EB9EED1F0BC01F0FF0102F00702A3
:1002400032B110F8013B013A83EA010313B1F8D14E
:100250000020704701387047002D06BF354603382F
:10026000073815F0010F07D1013015F4807F02BF68
:10027000013015F4C03F0130F0BC0138704700BFB9
:10028000034613F8012B002AFBD1181A01387047D6
:1002900081F0004102E000BF83F0004330B54FEA37
:1002A00041044FEA430594EA050F08BF90EA020FA4
:1002B0001FBF54EA000C55EA020C7FEA645C7FEA37
:1002C000655C00F0E2804FEA5454D4EB5555B8BF5A
:1002D0006D420CDD2C4480EA020281EA030382EACB
:1002E000000083EA010180EA020281EA0303362D5D
:1002F00088BF30BD11F0004F4FEA01314FF4801C30
:100300004CEA113102D0404261EB410113F0004F41
:100310004FEA03334CEA133302D0524263EB4303F8
:1003200094EA050F00F0A780A4F10104D5F1200E96
:100330000DDB02FA0EFC22FA05F2801841F10001F1
:1003400003FA0EF2801843FA05F359410EE0A5F1C5
:1003500020050EF1200E012A03FA0EFC28BF4CF0F6
:10036000020C43FA05F3C01851EBE37101F00045AC
:1003700007D54FF0000EDCF1000C7EEB00006EEBB9
:100380000101B1F5801F1BD3B1F5001F0CD3490843
:100390005FEA30004FEA3C0C04F101044FEA44529A
:1003A00012F5800F80F09A80BCF1004F08BF5FEA21
:1003B000500C50F1000041EB045141EA050130BD01
:1003C0005FEA4C0C404141EB0101013C28BFB1F513
:1003D000801FE9D291F0000F04BF01460020B1FA5E
:1003E00081F308BF2033A3F10B03B3F120020CDA31
:1003F0000C3208DD02F1140CC2F10C0201FA0CF00F
:1004000021FA02F10CE002F11402D8BFC2F1200C73
:1004100001FA02F120FA0CFCDCBF41EA0C01904029
:10042000E41AA2BF01EB0451294330BD6FEA040472
:100430001F3C1CDA0C340EDC04F11404C4F120025D
:1004400020FA04F001FA02F340EA030021FA04F36F
:1004500045EA030130BDC4F10C04C4F1200220FAC6
:1004600002F001FA04F340EA0300294630BD21FA04
:1004700004F0294630BD94F0000F83F4801306BFCA
:1004800081F480110134013D4EE77FEA645C18BFBE
:100490007FEA655C29D094EA050F08BF90EA020F55
:1004A00005D054EA000C04BF1946104630BD91EA4D
:1004B000030F1EBF0021002030BD5FEA545C05D150
:1004C0004000494128BF41F0004130BD14F580048F
:1004D0003CBF01F5801130BD01F0004545F0FE4103
:1004E00041F470014FF0000030BD7FEA645C1ABF38
:1004F000194610467FEA655C1CBF0B46024650EA6F
:10050000013406BF52EA033591EA030F41F400219A
:1005100030BD00BF90F0000F04BF0021704730B520
:100520004FF4806404F132044FF000054FF00001F5
:1005300050E700BF90F0000F04BF0021704730B5B6
:100540004FF4806404F1320410F0004548BF40428B
:100550004FF000013EE700BF42004FEAE2014FEAE0
:1005600031014FEA02701FBF12F07F4393F07F4FBB
:1005700081F06051704732F07F4208BF704793F0BE
:100580007F4F04BF41F40021704730B54FF46074D1
:1005900001F0004521F000411CE700BF50EA0102D4
:1005A00008BF704730B54FF000050AE050EA01027D
:1005B00008BF704730B511F0004502D5404261EBED
:1005C00041014FF4806404F132045FEA915C3FF42E
:1005D000D8AE4FF003025FEADC0C18BF03325FEACB
:1005E000DC0C18BF033202EBDC02C2F1200300FA7C
:1005F00003FC20FA02F001FA03FE40EA0E0021FAA1
:1006000002F11444BDE600BF70B54FF0FF0C4CF48E
:10061000E06C1CEA11541DBF1CEA135594EA0C0F40
:1006200095EA0C0F00F0DEF82C4481EA030621EA7B
:100630004C5123EA4C5350EA013518BF52EA0335B6
:1006400041F4801143F4801338D0A0FB02CE4FF068
:100650000005E1FB02E506F00042E0FB03E54FF098
:100660000006E1FB03569CF0000F18BF4EF0010E90
:10067000A4F1FF04B6F5007F64F5407404D25FEA8C
:100680004E0E6D4146EB060642EAC62141EA55513F
:100690004FEAC52040EA5E504FEACE2EB4F1FD0C81
:1006A00088BFBCF5E06F1ED8BEF1004F08BF5FEAFF
:1006B000500E50F1000041EB045170BD06F00046B1
:1006C00046EA010140EA020081EA0301B4EB5C045E
:1006D000C2BFD4EB0C0541EA045170BD41F4801156
:1006E0004FF0000E013C00F3AB8014F1360FDEBF7B
:1006F000002001F0004170BDC4F10004203C35DA57
:100700000C341BDC04F11404C4F1200500FA05F3D9
:1007100020FA04F001FA05F240EA020001F000427A
:1007200021F0004110EBD37021FA04F642EB0601F0
:100730005EEA430E08BF20EAD37070BDC4F10C041A
:10074000C4F1200500FA04F320FA05F001FA04F2DE
:1007500040EA020001F0004110EBD37041F10001CA
:100760005EEA430E08BF20EAD37070BDC4F12005D5
:1007700000FA05F24EEA020E20FA04F301FA05F23D
:1007800043EA020321FA04F001F0004121FA04F2E5
:1007900020EA020000EBD3705EEA430E08BF20EAB5
:1007A000D37070BD94F0000F0FD101F000464000EF
:1007B00041EB010111F4801F08BF013CF7D041EA71
:1007C000060195F0000F18BF704703F00046520075
:1007D00043EB030313F4801F08BF013DF7D043EA46
:1007E0000603704794EA0C0F0CEA135518BF95EAFC
:1007F0000C0F0CD050EA410618BF52EA4306D1D183
:1008000081EA030101F000414FF0000070BD50EAA1
:10081000410606BF1046194652EA430619D094EA2B
:100820000C0F02D150EA013613D195EA0C0F05D115
:1008300052EA03361CBF104619460AD181EA030169
:1008400001F0004141F0FE4141F470014FF0000021
:1008500070BD41F0FE4141F4780170BD70B54FF0BC
:10086000FF0C4CF4E06C1CEA11541DBF1CEA13553C
:1008700094EA0C0F95EA0C0F00F0A7F8A4EB05041E
:1008800081EA030E52EA03354FEA013100F0888015
:100890004FEA03334FF0805545EA131343EA1263DE
:1008A0004FEA022245EA111545EA10654FEA002693
:1008B0000EF000419D4208BF964244F1FD0404F54C
:1008C000407402D25B084FEA3202B61A65EB0305A8
:1008D0005B084FEA32024FF480104FF4002CB6EB65
:1008E000020E75EB030E22BFB61A754640EA0C00E5
:1008F0005B084FEA3202B6EB020E75EB030E22BF25
:10090000B61A754640EA5C005B084FEA3202B6EB65
:10091000020E75EB030E22BFB61A754640EA9C0024
:100920005B084FEA3202B6EB020E75EB030E22BFF4
:10093000B61A754640EADC0055EA060E18D04FEAB2
:10094000051545EA16754FEA06164FEAC30343EA52
:1009500052734FEAC2025FEA1C1CC0D111F4801F1F
:100960000BD141EA00014FF000004FF0004CB6E718
:1009700011F4801F04BF01430020B4F1FD0C88BFB7
:10098000BCF5E06F3FF6AFAEB5EB030C04BFB6EBC2
:10099000020C5FEA500C50F1000041EB045170BDB5
:1009A0000EF0004E4EEA113114EB5C04C2BFD4EBE2
:1009B0000C0541EA045170BD41F480114FF0000E66
:1009C000013C90E645EA060E8DE60CEA135594EAE2
:1009D0000C0F08BF95EA0C0F3FF43BAF94EA0C0FE5
:1009E0000AD150EA01347FF434AF95EA0C0F7FF45A
:1009F00025AF104619462CE795EA0C0F06D152EAAE
:100A000003353FF4FDAE1046194622E750EA410691
:100A100018BF52EA43067FF4C5AE50EA41047FF4A2
:100A20000DAF52EA43057FF4EBAE12E74FF0FF3C07
:100A300006E000BF4FF0010C02E000BF4FF0010CD8
:100A40004DF804CD4FEA410C7FEA6C5C4FEA430C51
:100A500018BF7FEA6C5C1BD001B050EA410C0CBFA0
:100A600052EA430C91EA030F02BF90EA020F002002
:100A7000704710F1000F91EA030F58BF994208BF69
:100A800090422CBFD8176FEAE37040F00100704726
:100A90004FEA410C7FEA6C5C02D150EA013C07D17D
:100AA0004FEA430C7FEA6C5CD6D152EA033CD3D0C8
:100AB0005DF8040B704700BF8446104662468C46C2
:100AC0001946634600E000BF01B5FFF7B7FF0028F5
:100AD00048BF10F1000F01BD4DF808EDFFF7F4FF1E
:100AE0000CBF012000205DF808FB00BF4DF808EDA9
:100AF000FFF7EAFF34BF012000205DF808FB00BFCC
:100B00004DF808EDFFF7E0FF94BF012000205DF8ED
:100B100008FB00BF4DF808EDFFF7CEFF94BF0120A2
:100B200000205DF808FB00BF4DF808EDFFF7C4FF9B
:100B300034BF012000205DF808FB00BF4FEA410CE4
:100B40007FEA6C5C02D150EA013C0AD14FEA430CC7
:100B50007FEA6C5C02D152EA033C02D14FF0000004
:100B600070474FF0010070474FEA410212F5001242
:100B700015D211D56FF47873B3EB625212D94FEAE4
:100B8000C12343F0004343EA505311F0004F23FACE
:100B900002F018BF404270474FF00000704750EA23
:100BA000013005D111F0004008BF6FF000407047E0
:100BB0004FF00000704700BF53B94AB9002908BF81
:100BC00000281CBF4FF0FF314FF0FF3000F088B914
:100BD000ADF1080C6DE904CE00F006F8DDF804E094
:100BE000DDE9022304B070472DE9F047089D0F4668
:100BF00004468C46002B48D18A42164661D9B2FA87
:100C000082F34BB1C3F1200201FA03FC20FA02F295
:100C10009E4042EA0C0C9C404FEA164EB7B2BCFB19
:100C2000FEF1220C0EFB11CC42EA0C4201FB07F054
:100C3000904209D9B21801F1FF3C80F0EE80904259
:100C400040F2EB8002393244121AA4B2B2FBFEF039
:100C50000EFB102244EA024400FB07F7A74209D921
:100C6000341900F1FF3280F0DA80A74240F2D780D9
:100C70003444023840EA0140E41B00211DB1DC404D
:100C80000023C5E90043BDE8F0878B4206D90DB1CA
:100C9000C5E9000100210846BDE8F087B3FA83F1F9
:100CA000002948D1BB4202D3824200F20781841A54
:100CB00067EB030201209446002DE4D0C5E9004C07
:100CC000E1E7002A00F09280B2FA82F3002B40F0B4
:100CD000A8808A1A4FEA164E1FFA86FC0121200CC2
:100CE000B2FBFEF70EFB172240EA02420CFB07F0B4
:100CF000904207D9B21807F1FF3802D2904200F2B1
:100D0000E2804746121AA4B2B2FBFEF00EFB10229C
:100D100044EA02440CFB00FCA44507D9341900F155
:100D2000FF3202D2A44500F2CB801046A4EB0C04A3
:100D300040EA0740A2E7C1F120068B4022FA06FCF8
:100D40004CEA030C07FA01F420FA06F3F7404FEAE5
:100D50001C49234300FA01F81FFA8CFEB7FBF9F097
:100D60001C0C09FB107744EA074400FB0EF7A7426E
:100D700002FA01F20AD91CEB040400F1FF3A80F0F8
:100D80009B80A74240F2988002386444E41B9FB2E3
:100D9000B4FBF9F309FB134447EA044403FB0EFEDA
:100DA000A64509D91CEB040403F1FF3780F08280CB
:100DB000A6457FD9023B644443EA0040A4EB0E04FD
:100DC000A0FB02E7BC427346B94663D360D05DB175
:100DD000B8EB030264EB090404FA06F622FA01F305
:100DE0001E43CC40C5E9006400214CE76208480876
:100DF00042EAC1710B0C43EA00438AB242EA034261
:100E0000B3FBF6F1E407B4463746B6461F23B0FB02
:100E1000F6F0D21B41EA004161E7614614E7104653
:100E200028E7C3F1200120FA01F29E4027FA01F1E0
:100E30009F403A434FEA164E1FFA86FCB1FBFEF77D
:100E40000EFB1710110C41EA004107FB0CF8884516
:100E500004FA03F43AD9711807F1FF3001D288453A
:100E60001FD8A1EB0801B1FBFEF808FB0CF70EFB45
:100E7000181192B242EA0142BA422FD2B21808F1D6
:100E8000FF31C6D2BA42C4D2A8F102013244C0E74F
:100E9000F0459CD2BEEB020367EB0C070138B94664
:100EA00095E7A6EB08084144B81EB1FBFEF808FB25
:100EB0000CF7DCE73B467FE7504667E70846FBE672
:100EC0003444023832E7023F32441BE7A1EB080109
:100ED0003846B1FBFEF808FB0CF7C8E7414698E737
:100EE000704700BF80B584B000AF78600023BB734B
:100EF00007F10E017B680122D02000F023F80346A1
:100F0000FB7397F90F30002B16D1BB7B602B11D1EF
:100F1000BA7B7B681A70786800F0BEF80346FB73F2
:100F200097F90F30002B07D1786800F0A5FD034634
:100F3000FB7301E0FC23FB7397F90F301846103761
:100F4000BD4680BD90B587B000AFB9607A603B60A8
:100F50000346FB73386800F00AFF0346FB7597F9F8
:100F60001730002B1ED1BB68002B1BD03B685B7871
:100F7000012B03D0FB7B63F07F03FB733B68DC68D2
:100F80003B685B68F87B7A68B968A04703461A46F5
:100F90003B681A723B6893F90830002B04D0FE239B
:100FA000FB7501E0FF23FB7597F9173018461C37D6
:100FB000BD4690BD90B58DB000AFF860B9607A6065
:100FC0003B607B680A2B01D90A237B60386800F0FC
:100FD000CEFE034687F82F3097F92F30002B50D1E3
:100FE000FB68002B4DD0BB68002B4AD07B68002BE0
:100FF00043D0BB681B783B743B685B78012B14D0F3
:1010000000237B620DE0FA687B6A13441A78F96862
:101010007B6A0B4402F07F02D2B21A707B6A013302
:101020007B627A6A7B689A42EDD37B68012B0BD98D
:1010300007F110017B68BA68F86800F061FD7B6811
:101040005B00013BBB6201E07B68BB623B681C69E3
:10105000FB6818783B685B6807F11001BA6AA04723
:1010600003461A463B681A723B6893F90830002B16
:101070000BD0FE2387F82F3007E0FD2387F82F30B1
:1010800003E0FF2387F82F3000E000BF97F92F30EF
:1010900018463437BD4690BD80B584B000AF786047
:1010A000E0237B7300233B730523BB73B623FB72E2
:1010B00007F10B0107F10D007B680122FFF77AFFB2
:1010C0000346FB7397F90F30002B25D17B685B69D2
:1010D0007A68526811464FF4FA60984707F10C019C
:1010E0007B680122F320FFF72DFF0346FB7397F97E
:1010F0000F30002B09D1BB7B5A1EBA73002B04D0D2
:101100003B7B03F00103002BE0D13B7B03F00103A9
:10111000002B01D0FA23FB7397F90F3018461037D4
:10112000BD4680BD80B58AB000AF0346B9607A6025
:10113000FB7307F11C0300221A605A6007F11003C9
:1011400000221A605A609A60BB68002B21D007F118
:101150001C017B680822F720FFF7F4FE034687F89E
:10116000273097F92730002B16D107F1100207F12D
:101170001C031146184600F076F87B68183307F117
:101180001001F87BBA6800F00DF8034687F82730A5
:1011900002E0FF2387F8273097F9273018462837D1
:1011A000BD4680BD80B586B000AFB9607A603B6057
:1011B0000346FB730023FB75BB68002B4BD07B6899
:1011C000002B48D03B68002B45D079684FF00002D7
:1011D0004FF00003C1E9022379684FF000024FF09D
:1011E0000003C1E9002379684FF000024FF00003CB
:1011F000C1E90423FB7B03F00703002B0AD0396805
:10120000B86800F077F8B0EE407AF0EE607A7B686C
:1012100083ED027BFB7B03F00103002B0AD03968CE
:10122000B86800F039F9B0EE407AF0EE607A7B6889
:1012300083ED007BFB7B03F00403002B0DD03968AA
:10124000B86800F0F9FAB0EE407AF0EE607A7B68A8
:1012500083ED047B01E0FF23FB7597F917301846F7
:101260001837BD4680BD80B487B000AF7860396064
:101270007B681B781B037B617B6801331B781B0138
:101280003B617B6802331B781B09DBB2FB607A6928
:101290003B691A43FB681A433B681A607B68033357
:1012A0001B781B037B617B6804331B781B013B614C
:1012B0007B6805331B781B09DBB2FB607A693B69ED
:1012C0001A43FB681A433B685A607B6806331B78F5
:1012D0001B027B617B6807331B783B617A693B6942
:1012E0001A433B689A6000BF1C37BD465DF8047B1B
:1012F00070470000B0B58CB000AF786039604FF037
:1013000000025F4BC7E908234FF000025D4BC7E9BD
:1013100006237B685B681846FFF7FCF84FF0000275
:10132000594BFFF79BFA02460B4614461D463B6895
:101330001B881846FFF7EEF84FF00002534BFFF7FB
:101340008DFA02460B4620462946FEF7A5FF0246C7
:101350000B46C7E904233B68B3F902301846FFF790
:10136000E9F802460B46D7E90401FFF74DF90246BA
:101370000B46C7E904237B685B681846FFF7CAF889
:101380004FF000024FF08243FFF768FA02460B4627
:1013900014461D463B681B881846FFF7BBF84FF004
:1013A00000023B4BFFF75AFA02460B4620462946FD
:1013B000FEF772FF02460B46C7E90223D7E9022374
:1013C000D7E90201FFF720F902460B4614461D46F5
:1013D0003B68B3F904301846FFF7ACF802460B46F9
:1013E00020462946FFF710F902460B46C7E90223BB
:1013F000D7E90223D7E90401FEF750FF02460B4666
:1014000010461946FFF7B0FB02463B685A62D7E91F
:101410000223D7E90401FEF741FF02460B461046BE
:1014200019464FF000021B4BFFF718FA02460B4615
:10143000C7E90A23D7E90823D7E90A01FFF756FBD2
:101440000346002B04D0D7E90823C7E90A230CE0A0
:10145000D7E90623D7E90A01FFF766FB0346002B0D
:1014600003D0D7E90623C7E90A23D7E90A2343ECC7
:10147000172BB0EE470AF0EE670A3037BD46B0BD15
:10148000000044C0004055400000D04000009040A3
:101490000000C0400000B440B0B58EB000AF78602E
:1014A0003960D9A3D3E90023C7E90A23D8A3D3E934
:1014B0000023C7E908233B685B6A1846FFF73AF840
:1014C0004FF000024FF08043FFF7C8F902460B4689
:1014D000104619464FF00002C14BFEF7DDFE0246F2
:1014E0000B46C7E90623D7E90623D7E90601FFF72C
:1014F0008BF802460B4614461D463B68B3F9103084
:101500001846FFF717F802460B4620462946FFF714
:101510007BF802460B46104619464FF00002B14BCD
:10152000FFF79CF902460B46C7E904233B68B3F971
:101530000E301846FEF7FEFFD7E90623FFF764F8E2
:1015400002460B461046194602460B46FEF7A6FE1B
:1015500002460B46D7E90401FEF7A0FE02460B4601
:10156000C7E904234FF000029F4BD7E90401FFF7BE
:1015700075F902460B4614461D463B68B3F90C301C
:101580001846FEF7D7FF4FF00002984BFFF73CF8E4
:1015900002460B4620462946FEF780FE02460B46D1
:1015A000C7E904233B68B3F90A301846FEF7C2FFC7
:1015B000D7E90623FFF728F802460B4610461946DE
:1015C000D7E90623FFF720F802460B4610461946D6
:1015D0004FF00002864BFFF741F902460B46C7E980
:1015E00002233B68B3F908301846FEF7A3FFD7E99A
:1015F0000623FFF709F802460B4610461946D7E9BD
:101600000223FEF74BFE02460B46104619464FF0EA
:101610000002774BFFF722F902460B46C7E9062383
:101620004FF000026F4BD7E90601FFF717F90246AA
:101630000B46104619464FF000026E4BFEF72EFE89
:1016400002460B4614461D463B68DB881846FEF7EB
:1016500061FF02460B4620462946FEF7D5FF0246AB
:101660000B46C7E906234FF000024FF00003D7E90D
:101670000601FFF759FA0346002B00F0CD807B6886
:101680001B681846FEF746FF02460B464FF0000067
:101690005949FEF701FE02460B46C7E90C234FF0FD
:1016A0000002564BD7E90401FFF7D8F802460B4673
:1016B000D7E90C01FEF7F0FD02460B46104619462D
:1016C00045A3D3E90023FEF79FFF02460B461046D1
:1016D0001946D7E90623FFF7C1F802460B46C7E9CA
:1016E0000C233B68B3F916301846FEF723FFD7E901
:1016F0000C23FEF789FF02460B4610461946D7E930
:101700000C23FEF781FF02460B46104619464FF0A8
:1017100000023B4BFFF7A2F802460B46C7E906233F
:101720003B68B3F914301846FEF704FFD7E90C23E1
:10173000FEF76AFF02460B46104619464FF00002BC
:10174000284BFFF78BF802460B46C7E90423D7E97D
:101750000423D7E90601FEF7A1FD02460B46144615
:101760001D463B68B3F912301846FEF7E3FE024609
:101770000B4620462946FEF791FD02460B461046D1
:1017800019464FF000021F4BFFF768F802460B4660
:10179000D7E90C01FEF782FD02460B46C7E90C2390
:1017A000D7E90A23D7E90C01FFF7A0F90346002B7C
:1017B00004D0D7E90A23C7E90C2331E0D7E908238D
:1017C000D7E90C01FFF7B0F90346002B28D0D7E981
:1017D0000823C7E90C2323E000000000006AB8409A
:1017E0000040EF400000E040000010400000F040EA
:1017F000000020410000F03F000030410000B040F8
:101800000000E0410000304000000000004CDD40DE
:101810000000000000DBFA40D7E90A23C7E90C23E7
:10182000D7E90C2343EC172BB0EE470AF0EE670A1A
:101830003837BD46B0BD00BFB0B594B000AF7860DA
:1018400039604FF000024FF00003C7E910234FF05A
:101850000002814BC7E90E233B685B6A1846FEF71E
:1018600069FE4FF000027D4BFEF716FD02460B4667
:10187000C7E90C233B68B3F91E301846FEF75AFE41
:101880004FF00002764BFEF7BFFE02460B461446B1
:101890001D463B68B3F920301846FEF74BFE4FF06B
:1018A0000002704BFEF7DAFF02460B46104619465F
:1018B000D7E90C23FEF7A8FE02460B462046294630
:1018C000FEF7ECFC02460B46C7E90A237B689B68DF
:1018D0001846FEF71FFED7E90A23FEF7DDFC024695
:1018E0000B46C7E908233B68B3F91A301846FEF7E0
:1018F00021FE4FF000025C4BFEF7B0FF02460B46A4
:10190000C7E906233B681B7F1846FEF703FE4FF02E
:101910000002564BFEF7A2FF02460B461046194640
:10192000D7E90C23FEF770FE02460B461046194617
:101930004FF000024E4BFEF7B1FC02460B46C7E9E2
:1019400004233B6893F922301846FEF7F3FD4FF06D
:101950000002464BFEF782FF02460B461046194630
:10196000D7E90C23FEF750FE02460B4610461946F7
:10197000D7E90423FEF748FE02460B4610461946F7
:101980004FF000023A4BFEF789FC02460B46C7E9CE
:101990000223D7E90623D7E90801FEF735FE024600
:1019A0000B4614461D46D7E90223D7E90401FEF78A
:1019B0002BFE02460B4620462946FEF725FE024630
:1019C0000B46C7E902233B681B7E1846FEF7A2FDC3
:1019D000D7E90223FEF718FE02460B4610461946C9
:1019E0004FF00002234BFEF739FF02460B464FF043
:1019F00000001F49FEF750FC02460B46D7E90201E2
:101A0000FEF702FE02460B46C7E91223D7E90E2372
:101A1000D7E91201FFF788F80346002B04D0D7E975
:101A20000E23C7E912230CE0D7E91023D7E91201EE
:101A3000FFF75CF80346002B03D0D7E91023C7E972
:101A40001223D7E9122343EC172BB0EE470AF0EE2E
:101A5000670A5037BD46B0BD0000594000C0F24093
:101A6000000050400000D0400000F04000009041D5
:101A70000000F03F0000204180B58AB000AF7860E0
:101A8000882387F8263007F10C0300221A605A6079
:101A90009A60DA601A615A611A8307F10C0197F8AB
:101AA00026007B681A22FFF74DFA034687F8273095
:101AB00097F92730002B1DD107F10C0379681846E0
:101AC00000F049F8E12387F8263007F10C0197F878
:101AD00026007B680722FFF735FA034687F8273090
:101AE00097F92730002B05D107F10C0379681846C8
:101AF00000F0EDF897F9273018462837BD4680BD2D
:101B000080B487B000AFF860B9607A603B600123B1
:101B10007B6115E0FA687B691A447B695B00013BD5
:101B2000B9680B4412781A707A687B691A447B6929
:101B30005B00B9680B4412781A707B6901337B61D2
:101B40007A693B689A42E5D300BF00BF1C37BD46A7
:101B50005DF8047B704780B485B000AF7860396071
:101B60003B681833FB607B6801331B781BB21B0298
:101B70001AB27B681B781BB213431BB29AB2FB6884
:101B80001A807B6803331B781BB21B021AB27B6876
:101B900002331B781BB213431AB2FB685A807B686E
:101BA00005331B781BB21B021AB27B6804331B7807
:101BB0001BB213431AB2FB689A807B6807331B7809
:101BC0001BB21B021AB27B6806331B781BB213438D
:101BD0001BB29AB2FB68DA807B6809331B781BB2B0
:101BE0001B021AB27B6808331B781BB213431AB26C
:101BF000FB681A817B680B331B781BB21B021AB27D
:101C00007B680A331B781BB213431AB2FB685A81F4
:101C10007B680D331B781BB21B021AB27B680C3336
:101C20001B781BB213431AB2FB689A817B680F338F
:101C30001B781BB21B021AB27B680E331B781BB2D7
:101C400013431AB2FB68DA817B6811331B781BB22D
:101C50001B021AB27B6810331B781BB213431AB2F3
:101C6000FB681A827B6813331B781BB21B021AB203
:101C70007B6812331B781BB213431AB2FB685A827B
:101C80007B6815331B781BB21B021AB27B681433B6
:101C90001B781BB213431AB2FB689A827B68173316
:101CA0001B781BB21B021AB27B6816331B781BB25F
:101CB00013431AB2FB68DA827B6819331A78FB681F
:101CC0001A7600BF1437BD465DF8047B704780B4B8
:101CD00087B000AF786039603B6818337B617B6800
:101CE00001331B781BB21B021AB27B681B781BB234
:101CF00013431AB27B695A837B6802331A787B6973
:101D00001A777B6803331B785BB29BB21B019BB2D3
:101D10007B827B6804331B781BB203F00F033B828A
:101D20007A8A3B8A13431AB27B69DA837B6805336C
:101D30001B785BB29BB21B019BB2FB817B680433B7
:101D40001B781B09DBB2BB81FA89BB8913431AB22A
:101D50007B691A847B6806331B785AB27B6983F8E7
:101D6000222000BF1C37BD465DF8047B704780B45D
:101D700085B000AF78607B68002B0BD07B68DB6898
:101D8000002B07D07B681B69002B03D07B685B6945
:101D9000002B02D1FF23FB7301E00023FB7397F9B3
:101DA0000F3018461437BD465DF8047B70470000BD
:101DB00080B582B000AF786039607B68054AA2FBCD
:101DC00003239B09184600F071FC00BF0837BD468D
:101DD00080BD00BFD34D621080B588B004AFB9603C
:101DE0007A603B600346FB73FB7B9AB27B689BB2D5
:101DF000642102910193BB6800930123EC21044804
:101E000001F03AF9002318461037BD4680BD00BFE7
:101E1000F401002080B588B004AFB9607A603B60FF
:101E20000346FB73FB7B9AB27B689BB264210291F1
:101E30000193BB6800930123EC21044801F022F8D0
:101E4000002318461037BD4680BD00BFF4010020B6
:101E50002DE9B043A6B004AF00F0B6FB00F0B0F837
:101E600000F070F900F016F900F042F9484B012239
:101E70005A70474B474ADA60454B474A1A61444B10
:101E8000464A5A61424B00225A604148FFF72AF8FD
:101E9000012387F88730642302930123019307F11C
:101EA000870300930123F222EC213D4800F0EAFF72
:101EB000272387F88630642302930123019307F1D7
:101EC000860300930123F422EC21354800F0DAFF69
:101ED000002387F88530642302930123019307F1DF
:101EE000850300930123F522EC212D4800F0CAFF61
:101EF000274A2C490720FFF715F92A4BD3E902019D
:101F00004FF00002284BFEF70FFE0346002B0DD0CA
:101F100000224FF40051254800F056FE214BD3E932
:101F20000223381D224903F00FFC1FE001224FF469
:101F300000511E4800F048FE1A4BD3E90289194BA4
:101F4000D3E90445174BD3E900014FF00002194BC8
:101F5000FEF784FC02460B46381DCDE90223CDE98D
:101F6000004542464B46144903F0EEFB3B1D184624
:101F7000FEF786F903469AB2391D4FF0FF330F483A
:101F800002F006FB4FF4FA6000F090FBB0E700BFF0
:101F900090020020D91D0008151E0008B11D000880
:101FA000F4010020D002002000003C400008024064
:101FB000E879000800005940047A0008480200202F
:101FC00080B594B000AF07F12003302200211846FD
:101FD00003F020FC07F10C0300221A605A609A609B
:101FE000DA601A610023BB60284B1B6C274A43F060
:101FF00080531364254B1B6C03F08053BB60BB689C
:1020000000237B60224B1B6823F44043204A43F4A7
:10201000004313601E4B1B6803F440437B607B68E6
:1020200002233B620123FB6210233B630223BB6359
:102030000023FB6308233B6454237B640223BB64BB
:102040000423FB6407F12003184601F0FBFD03465F
:10205000002B01D000F0C8F80F23FB6002233B6186
:1020600000237B614FF48053BB610023FB6107F1C8
:102070000C030221184602F05DF80346002B01D044
:1020800000F0B2F800BF5037BD4680BD00380240B6
:102090000070004080B500AF124B134A1A60114B1C
:1020A000124A5A600F4B00229A600E4B0022DA60EF
:1020B0000C4B4FF480421A610A4B00225A61094BC3
:1020C00000229A61074B0022DA61064B00221A6255
:1020D000044800F093FD0346002B01D000F084F883
:1020E00000BF80BDF401002000540040A086010024
:1020F00080B500AF114B124A1A60104B4FF4E13219
:102100005A600E4B00229A600C4B0022DA600B4B97
:1021100000221A61094B0C225A61084B00229A6175
:10212000064B0022DA61054802F0E2F90346002B73
:1021300001D000F059F800BF80BD00BF4802002068
:102140000044004080B588B000AF07F10C030022C6
:102150001A605A609A60DA601A610023BB60204BF3
:102160001B6B1F4A43F0040313631D4B1B6B03F0EF
:102170000403BB60BB6800237B60194B1B6B184AD0
:1021800043F001031363164B1B6B03F001037B60E9
:102190007B6800233B60124B1B6B114A43F0020328
:1021A00013630F4B1B6B03F002033B603B68002281
:1021B0004FF400510B4800F007FD4FF40053FB6053
:1021C00001233B6100237B610023BB6107F10C030A
:1021D0001946044800F074FB00BF2037BD4680BD9F
:1021E000003802400008024080B400AF72B600BF61
:1021F00000BFFDE780B483B000AF00237B60104BCD
:102200005B6C0F4A43F4804353640D4B5B6C03F4E7
:1022100080437B607B6800233B60094B1B6C084A52
:1022200043F080531364064B1B6C03F080533B60F8
:102230003B6800BF0C37BD465DF8047B704700BFAC
:102240000038024080B58AB000AF786007F114030F
:1022500000221A605A609A60DA601A617B681B6813
:10226000194A93422BD100233B61184B1B6B174A31
:1022700043F002031363154B1B6B03F002033B6136
:102280003B69C0237B611223BB610023FB610323F5
:102290003B6204237B6207F1140319460C4800F0EB
:1022A0000FFB0023FB60094B1B6C084A43F400132F
:1022B0001364064B1B6C03F40013FB60FB6800BF48
:1022C0002837BD4680BD00BF0054004000380240A2
:1022D0000004024080B58AB000AF786007F11403B3
:1022E00000221A605A609A60DA601A617B681B6883
:1022F000194A93422BD100233B61184B1B6C174AA0
:1023000043F400331364154B1B6C03F400333B613F
:102310003B690023FB60114B1B6B104A43F0010328
:1023200013630E4B1B6B03F00103FB60FB680C2374
:102330007B610223BB610023FB6103233B62072314
:102340007B6207F114031946054800F0B9FA00BF93
:102350002837BD4680BD00BF004400400038024021
:102360000000024080B400AF00BFFDE780B400AFC2
:1023700000BFFDE780B400AF00BFFDE780B400AF51
:1023800000BFFDE780B400AF00BFFDE780B400AF41
:1023900000BFBD465DF8047B704780B400AF00BF4E
:1023A000BD465DF8047B704780B400AF00BFBD46FA
:1023B0005DF8047B704780B500AF00F057F900BFAF
:1023C00080BD80B400AF01231846BD465DF8047B94
:1023D000704780B582B000AF7860396003F06CFA66
:1023E000034616221A604FF0FF3318460837BD46E1
:1023F00080BD80B582B000AF78604FF0FF31786863
:10240000FFF7E7FF00BFFDE780B586B000AFF860DB
:10241000B9607A6000237B610AE0AFF30080014677
:10242000BB685A1CBA60CAB21A707B6901337B61FF
:102430007A697B689A42F0DB7B6818461837BD469C
:1024400080BD80B586B000AFF860B9607A600023C7
:102450007B6109E0BB685A1CBA601B781846AFF371
:1024600000807B6901337B617A697B689A42F1DB8A
:102470007B6818461837BD4680BD80B483B000AF76
:1024800078604FF0FF3318460C37BD465DF8047B8B
:10249000704780B483B000AF786039603B684FF418
:1024A00000525A60002318460C37BD465DF8047B85
:1024B000704780B483B000AF7860012318460C37B2
:1024C000BD465DF8047B704780B485B000AFF8600E
:1024D000B9607A60002318461437BD465DF8047B66
:1024E0007047000080B586B000AF7860144A154B85
:1024F000D31A7B617B693B61134B1B68002B02D1B4
:10250000114B124A1A60104B1A687B6813443A69DF
:102510009A4207D203F0D0F903460C221A604FF01A
:10252000FF3309E0084B1B68FB60074B1A687B68A8
:102530001344054A1360FB6818461837BD4680BD32
:102540000080012000040000E80200204004002078
:1025500080B400AF064BD3F88830054A43F47003CB
:10256000C2F8883000BFBD465DF8047B704700BFED
:1025700000ED00E0DFF834D0FFF7EAFF0C480D492A
:102580000D4A002302E0D458C4500433C4188C42CE
:10259000F9D30A4A0A4C002301E013600432A24234
:1025A000FBD303F08FF9FFF753FC70470080012045
:1025B00000000020D4010020D47D0008D8010020B4
:1025C0003C040020FEE7000080B500AF0E4B1B6806
:1025D0000D4A43F4007313600B4B1B680A4A43F423
:1025E00080631360084B1B68074A43F480731360D1
:1025F000032000F031F90F2000F008F8FFF7FAFD92
:102600000023184680BD00BF003C024080B582B068
:1026100000AF7860124B1A68124B1B7819464FF4C2
:102620007A73B3FBF1F3B2FBF3F3184600F03BF916
:102630000346002B01D001230EE07B680F2B0AD844
:10264000002279684FF0FF3000F011F9064A7B68EC
:102650001360002300E0012318460837BD4680BD03
:1026600000000020080000200400002080B400AF1B
:10267000064B1B781A46064B1B681344044A13602A
:1026800000BFBD465DF8047B704700BF0800002016
:10269000EC02002080B400AF034B1B681846BD4617
:1026A0005DF8047B704700BFEC02002080B584B069
:1026B00000AF7860FFF7EEFFB8607B68FB60FB68F7
:1026C000B3F1FF3F05D00A4B1B781A46FB68134451
:1026D000FB6000BFFFF7DEFF0246BB68D31AFA6853
:1026E0009A42F7D800BF00BF1037BD4680BD00BF7B
:1026F0000800002080B485B000AF78607B6803F0EC
:102700000703FB600C4BDB68BB60BA684FF6FF0346
:102710001340BB60FB681A02BB68134343F0BF63FE
:1027200043F40033BB60044ABB68D36000BF143776
:10273000BD465DF8047B704700ED00E080B400AF5B
:10274000044BDB681B0A03F007031846BD465DF81F
:10275000047B704700ED00E080B483B000AF034617
:102760003960FB7197F90730002B0ADB3B68DAB25E
:102770000C4997F907301201D2B20B4483F80023B9
:102780000AE03B68DAB20849FB7903F00F03043B27
:102790001201D2B20B441A7600BF0C37BD465DF869
:1027A000047B704700E100E000ED00E080B489B0F8
:1027B00000AFF860B9607A60FB6803F00703FB6163
:1027C000FB69C3F10703042B28BF0423BB61FB692A
:1027D0000433062B02D9FB69033B00E000237B6135
:1027E0004FF0FF32BB6902FA03F3DA43BB681A40C9
:1027F0007B699A404FF0FF317B6901FA03F3D943BB
:102800007B680B40134318462437BD465DF8047BB4
:102810007047000080B582B000AF78607B68013BF4
:10282000B3F1807F01D301230FE00A4A7B68013BAB
:1028300053600F214FF0FF30FFF78EFF054B002252
:102840009A60044B07221A60002318460837BD46D9
:1028500080BD00BF10E000E080B582B000AF7860BE
:102860007868FFF747FF00BF0837BD4680BD80B5D9
:1028700086B000AF0346B9607A60FB7300237B61CA
:10288000FFF75CFF78617A68B9687869FFF78EFFB7
:10289000024697F90F3011461846FFF75DFF00BF5B
:1028A0001837BD4680BD80B582B000AF78607868CB
:1028B000FFF7B0FF034618460837BD4680BD00004D
:1028C00080B489B000AF7860396000237B61002359
:1028D0003B610023BB610023FB6159E10122FB69DD
:1028E00002FA03F37B613B681B687A6913403B6122
:1028F0003A697B699A4240F048813B685B6803F023
:102900000303012B05D03B685B6803F00303022B34
:1029100030D17B689B68BB61FB695B00032202FAD4
:1029200003F3DB43BA691340BB613B68DA68FB69B8
:102930005B0002FA03F3BA691343BB617B68BA69AF
:102940009A607B685B68BB610122FB6902FA03F352
:10295000DB43BA691340BB613B685B681B0903F04A
:102960000102FB6902FA03F3BA691343BB617B6896
:10297000BA695A603B685B6803F00303032B17D006
:102980007B68DB68BB61FB695B00032202FA03F32F
:10299000DB43BA691340BB613B689A68FB695B0023
:1029A00002FA03F3BA691343BB617B68BA69DA6060
:1029B0003B685B6803F00303022B23D1FB69DA0851
:1029C0007B68083253F82230BB61FB6903F00703D0
:1029D0009B000F2202FA03F3DB43BA691340BB6189
:1029E0003B681A69FB6903F007039B0002FA03F3D3
:1029F000BA691343BB61FB69DA087B680832B969BD
:102A000043F822107B681B68BB61FB695B000322F3
:102A100002FA03F3DB43BA691340BB613B685B68AE
:102A200003F00302FB695B0002FA03F3BA69134384
:102A3000BB617B68BA691A603B685B6803F440332A
:102A4000002B00F0A2800023FB60574B5B6C564AC2
:102A500043F480435364544B5B6C03F48043FB604A
:102A6000FB68524AFB699B08023352F82330BB6172
:102A7000FB6903F003039B000F2202FA03F3DB431D
:102A8000BA691340BB617B68494A934219D07B689D
:102A9000484A934213D07B68474A93420DD07B68E3
:102AA000464A934207D07B68454A934201D10423AA
:102AB00008E0072306E0032304E0022302E00123E9
:102AC00000E00023FA6902F0030292009340BA6921
:102AD0001343BB613549FB699B080233BA6941F86E
:102AE0002320384B9B68BB613B69DB43BA691340C9
:102AF000BB613B685B6803F48013002B03D0BA69A9
:102B00003B691343BB612F4ABB6993602D4BDB6864
:102B1000BB613B69DB43BA691340BB613B685B68DF
:102B200003F40013002B03D0BA693B691343BB6164
:102B3000244ABB69D360234B5B68BB613B69DB43C1
:102B4000BA691340BB613B685B6803F40033002B38
:102B500003D0BA693B691343BB611A4ABB6953602E
:102B6000184B1B68BB613B69DB43BA691340BB610F
:102B70003B685B6803F48033002B03D0BA693B6980
:102B80001343BB610F4ABB691360FB690133FB61EF
:102B9000FB690F2B7FF6A2AE00BF00BF2437BD46F6
:102BA0005DF8047B704700BF0038024000380140E8
:102BB000000002400004024000080240000C0240F5
:102BC00000100240003C014080B483B000AF786048
:102BD0000B467B8013467B707B78002B03D07A8872
:102BE0007B689A6103E07B881A047B689A6100BF66
:102BF0000C37BD465DF8047B7047000080B584B09B
:102C000000AF78607B68002B01D101232BE17B684A
:102C100093F83D30DBB2002B06D17B68002283F8AD
:102C20003C207868FFF70EFB7B68242283F83D2068
:102C30007B681B681A687B681B6822F001021A60B7
:102C40007B681B681A687B681B6842F400421A6044
:102C50007B681B681A687B681B6822F400421A6054
:102C600001F01EFCF8607B685B68814A934207D8DC
:102C7000FB68804A934294BF01230023DBB206E045
:102C8000FB687D4A934294BF01230023DBB2002BF3
:102C900001D00123E7E0FB68784AA2FB03239B0CE9
:102CA000BB607B681B685B6823F03F017B681B6827
:102CB000BA680A435A607B681B681B6A23F03F01AD
:102CC0007B685B686A4A934202D8BB68013309E0BB
:102CD000BB684FF4967202FB03F3694AA2FB03231D
:102CE0009B0901337A6812680B4313627B681B6887
:102CF000DB6923F44F4222F0FF027B685B685C498A
:102D00008B4219D8FB68591E7B685B685B00B1FB7E
:102D1000F3F3591C40F6FC730B40002B0AD0FB6800
:102D2000591E7B685B685B00B1FBF3F30133C3F3AF
:102D30000B0351E004234FE07B689B68002B11D10B
:102D4000FB68581E7B6859680B465B000B44B0FB60
:102D5000F3F30133C3F30B03002B0CBF0123002358
:102D6000DBB212E0FB68581E7B6859680B469B007B
:102D70000B4499000B44B0FBF3F30133C3F30B0393
:102D8000002B0CBF01230023DBB2002B01D0012359
:102D900022E07B689B68002B0ED1FB68581E7B6885
:102DA00059680B465B000B44B0FBF3F30133C3F3EC
:102DB0000B0343F400430FE0FB68581E7B6859681F
:102DC0000B469B000B4499000B44B0FBF3F301331B
:102DD000C3F30B0343F44043796809681343CB61A1
:102DE0007B681B681B6823F0C0017B68DA697B681D
:102DF0001B6A1A437B681B680A431A607B681B685E
:102E00009B6823F4034323F0FF037A6811697A680F
:102E1000D26811437A6812680B4393607B681B6821
:102E2000DB6823F0FF017B685A697B689B691A4362
:102E30007B681B680A43DA607B681B681A687B68DA
:102E40001B6842F001021A607B6800221A647B68EA
:102E5000202283F83D207B6800221A637B680022D1
:102E600083F83E20002318461037BD4680BD00BFC2
:102E7000A08601007F841E00FF083D0083DE1B4307
:102E8000D34D621080B588B002AFF8600846114695
:102E90001A4603467B810B463B811346FB80FFF7B6
:102EA000F9FB7861FB6893F83D30DBB2202B40F0F2
:102EB000D9807B690093192301226D49F86800F0DD
:102EC0008BFC0346002B01D00223CCE0FB6893F877
:102ED0003C30012B01D10223C5E0FB68012283F8BD
:102EE0003C20FB681B681B6803F00103012B07D023
:102EF000FB681B681A68FB681B6842F001021A60D5
:102F0000FB681B681A68FB681B6822F400621A6081
:102F1000FB68212283F83D20FB68402283F83E2095
:102F2000FB6800221A64FB683A6A5A62FB68BA8C32
:102F30005A85FB685B8D9AB2FB681A85FB684D4A1F
:102F4000DA62F8883A8979897B690193BB6A0093D0
:102F50000346F86800F0C2FA0346002B52D0012362
:102F600081E07A69B96AF86800F050FD0346002BE9
:102F70000DD0FB681B6C042B07D1FB681B681A681B
:102F8000FB681B6842F400721A6001236BE0FB6867
:102F90005B6A1A78FB681B681A61FB685B6A5A1CDB
:102FA000FB685A62FB681B8D013B9AB2FB681A856D
:102FB000FB685B8D9BB2013B9AB2FB685A85FB684C
:102FC0001B685B6903F00403042B1BD1FB681B8D9A
:102FD000002B17D0FB685B6A1A78FB681B681A61C4
:102FE000FB685B6A5A1CFB685A62FB681B8D013BDD
:102FF0009AB2FB681A85FB685B8D9BB2013B9AB263
:10300000FB685A85FB681B8D002BAAD17A69B96AC7
:10301000F86800F043FD0346002B0DD0FB681B6CE5
:10302000042B07D1FB681B681A68FB681B6842F415
:1030300000721A60012316E0FB681B681A68FB68BF
:103040001B6842F400721A60FB68202283F83D205E
:10305000FB68002283F83E20FB68002283F83C20B6
:10306000002300E0022318461837BD4680BD00BF8C
:10307000020010000000FFFF80B58CB002AFF860C6
:10308000084611461A4603467B810B463B81134690
:10309000FB80FFF7FFFA7862FB6893F83D30DBB204
:1030A000202B40F014827B6A0093192301227B4974
:1030B000F86800F091FB0346002B01D0022307E2E1
:1030C000FB6893F83C30012B01D1022300E2FB683E
:1030D000012283F83C20FB681B681B6803F0010396
:1030E000012B07D0FB681B681A68FB681B6842F05D
:1030F00001021A60FB681B681A68FB681B6822F4EF
:1031000000621A60FB68222283F83D20FB6840229F
:1031100083F83E20FB6800221A64FB683A6B5A620F
:10312000FB68BA8E5A85FB685B8D9AB2FB681A857C
:10313000FB685B4ADA62F8883A8979897B6A01938D
:10314000BB6B00930346F86800F05EFA0346002B61
:1031500001D00123BCE1FB681B8D002B13D10023A0
:103160003B62FB681B685B693B62FB681B689B6991
:103170003B623B6AFB681B681A68FB681B6842F489
:1031800000721A6090E1FB681B8D012B1BD1FB685C
:103190001B681A68FB681B6822F480621A600023AF
:1031A000FB61FB681B685B69FB61FB681B689B69D3
:1031B000FB61FB69FB681B681A68FB681B6842F4CB
:1031C00000721A6070E1FB681B8D022B1BD1FB683B
:1031D0001B681A68FB681B6822F480621A60FB682F
:1031E0001B681A68FB681B6842F400621A600023BF
:1031F000BB61FB681B685B69BB61FB681B689B6903
:10320000BB61BB6950E100237B61FB681B685B69A4
:103210007B61FB681B689B697B617B6944E1FB68A0
:103220001B8D032B00F2F180FB681B8D012B23D13A
:103230007A6AB96BF86800F079FC0346002B01D07C
:10324000012345E1FB681B681A69FB685B6AD2B21F
:103250001A70FB685B6A5A1CFB685A62FB681B8D1C
:10326000013B9AB2FB681A85FB685B8D9BB2013B00
:103270009AB2FB685A8517E1FB681B8D022B4ED171
:103280007B6A0093BB6B00220649F86800F0A4FA41
:103290000346002B08D001231AE100BF02001000F2
:1032A0000000FFFF04000100FB681B681A68FB6850
:1032B0001B6842F400721A60FB681B681A69FB689D
:1032C0005B6AD2B21A70FB685B6A5A1CFB685A626E
:1032D000FB681B8D013B9AB2FB681A85FB685B8D0E
:1032E0009BB2013B9AB2FB685A85FB681B681A695E
:1032F000FB685B6AD2B21A70FB685B6A5A1CFB6897
:103300005A62FB681B8D013B9AB2FB681A85FB6809
:103310005B8D9BB2013B9AB2FB685A85C4E07B6A25
:103320000093BB6B00226C49F86800F055FA034625
:10333000002B01D00123CBE0FB681B681A68FB68F7
:103340001B6822F480621A60FB681B681A69FB68BC
:103350005B6AD2B21A70FB685B6A5A1CFB685A62DD
:10336000FB681B8D013B9AB2FB681A85FB685B8D7D
:103370009BB2013B9AB2FB685A857B6A0093BB6B98
:1033800000225549F86800F027FA0346002B01D0C7
:1033900001239DE0FB681B681A68FB681B6842F408
:1033A00000721A60FB681B681A69FB685B6AD2B21C
:1033B0001A70FB685B6A5A1CFB685A62FB681B8DBB
:1033C000013B9AB2FB681A85FB685B8D9BB2013B9F
:1033D0009AB2FB685A85FB681B681A69FB685B6ACE
:1033E000D2B21A70FB685B6A5A1CFB685A62FB68AF
:1033F0001B8D013B9AB2FB681A85FB685B8D9BB203
:10340000013B9AB2FB685A854EE07A6AB96BF8685C
:1034100000F08CFB0346002B01D0012358E0FB6831
:103420001B681A69FB685B6AD2B21A70FB685B6A38
:103430005A1CFB685A62FB681B8D013B9AB2FB6801
:103440001A85FB685B8D9BB2013B9AB2FB685A857B
:10345000FB681B685B6903F00403042B24D1FB6841
:103460001B8D032B07D1FB681B681A68FB681B6860
:1034700022F480621A60FB681B681A69FB685B6A49
:10348000D2B21A70FB685B6A5A1CFB685A62FB680E
:103490001B8D013B9AB2FB681A85FB685B8D9BB262
:1034A000013B9AB2FB685A85FB681B8D002B7FF4A9
:1034B000B6AEFB68202283F83D20FB68002283F82B
:1034C0003E20FB68002283F83C20002300E002231A
:1034D00018462837BD4680BD0400010080B588B07D
:1034E00002AFF860084611461A4603467B810B4638
:1034F0003B811346FB80FB681B681A68FB681B68EE
:1035000042F480721A607B6A00933B6A00224FF09B
:103510000111F86800F060F90346002B0DD0FB683C
:103520001B681B6803F48073B3F5807F03D1FB68CD
:103530004FF400721A6403235FE07B89DBB21A4602
:10354000FB681B6802F0FE021A617B6A3A6A2D4929
:10355000F86800F0BBF90346002B01D001234CE0D2
:1035600000237B61FB681B685B697B61FB681B68F0
:103570009B697B617B697A6A396AF86800F046FA70
:103580000346002B0DD0FB681B6C042B07D1FB6896
:103590001B681A68FB681B6842F400721A600123FA
:1035A0002BE0FB88012B05D13B89DAB2FB681B6855
:1035B0001A6121E03B891B0A9BB2DAB2FB681B68E7
:1035C0001A617A6A396AF86800F020FA0346002B1B
:1035D0000DD0FB681B6C042B07D1FB681B681A68B5
:1035E000FB681B6842F400721A60012305E03B8906
:1035F000DAB2FB681B681A61002318461837BD460B
:1036000080BD00BF0200010080B588B002AFF86045
:10361000084611461A4603467B810B463B811346FA
:10362000FB80FB681B681A68FB681B6842F48062B9
:103630001A60FB681B681A68FB681B6842F480729A
:103640001A607B6A00933B6A00224FF00111F86810
:1036500000F0C2F80346002B0DD0FB681B681B6806
:1036600003F48073B3F5807F03D1FB684FF40072DD
:103670001A640323AAE07B89DBB21A46FB681B6845
:1036800002F0FE021A617B6A3A6A5249F86800F059
:103690001DF90346002B01D0012397E000237B6135
:1036A000FB681B685B697B61FB681B689B697B61CE
:1036B0007B697A6A396AF86800F0A8F90346002B3A
:1036C0000DD0FB681B6C042B07D1FB681B681A68C4
:1036D000FB681B6842F400721A60012376E0FB88E5
:1036E000012B05D13B89DAB2FB681B681A6121E026
:1036F0003B891B0A9BB2DAB2FB681B681A617A6AC3
:10370000396AF86800F082F90346002B0DD0FB6897
:103710001B6C042B07D1FB681B681A68FB681B68CD
:1037200042F400721A60012350E03B89DAB2FB6870
:103730001B681A617A6A396AF86800F067F903460B
:10374000002B0DD0FB681B6C042B07D1FB681B689A
:103750001A68FB681B6842F400721A60012335E0A6
:10376000FB681B681A68FB681B6842F480721A6069
:103770007B6A00933B6A00224FF00111F86800F069
:103780002BF80346002B0DD0FB681B681B6803F465
:103790008073B3F5807F03D1FB684FF400721A6425
:1037A000032313E07B89DBB243F00103DAB2FB6849
:1037B0001B681A617B6A3A6A0649F86800F086F865
:1037C0000346002B01D0012300E0002318461837E0
:1037D000BD4680BD0200010080B584B000AFF86036
:1037E000B9603B601346FB7148E03B68B3F1FF3FB3
:1037F00044D0FEF74FFF0246BB69D31A3A689A429B
:1038000002D33B68002B39D1BB681B0CDBB2012B08
:103810000DD1FB681B685B69DA43BB6813409BB240
:10382000002B0CBF01230023DBB21A460CE0FB681F
:103830001B689B69DA43BB6813409BB2002B0CBF2B
:1038400001230023DBB21A46FB799A4216D1FB68AA
:1038500000221A63FB68202283F83D20FB680022C7
:1038600083F83E20FB681B6C43F02002FB681A645F
:10387000FB68002283F83C20012323E0BB681B0C7B
:10388000DBB2012B0DD1FB681B685B69DA43BB68B7
:1038900013409BB2002B0CBF01230023DBB21A465E
:1038A0000CE0FB681B689B69DA43BB6813409BB262
:1038B000002B0CBF01230023DBB21A46FB799A428E
:1038C00093D0002318461037BD4680BD80B584B024
:1038D00000AFF860B9607A603B6071E0FB681B681C
:1038E0005B6903F48063B3F5806F23D1FB681B68C9
:1038F0001A68FB681B6842F400721A60FB681B6858
:103900006FF480625A61FB6800221A63FB68202210
:1039100083F83D20FB68002283F83E20FB681B6C87
:1039200043F00402FB681A64FB68002283F83C2021
:10393000012367E07B68B3F1FF3F41D0FEF7AAFEA9
:1039400002463B68D31A7A689A4202D37B68002BFE
:1039500036D1BB681B0CDBB2012B0CD1FB681B689A
:103960005B69DA43BB6813409BB2002B14BF012391
:103970000023DBB20BE0FB681B689B69DA43BB6882
:1039800013409BB2002B14BF01230023DBB2002B9A
:1039900016D0FB6800221A63FB68202283F83D20C2
:1039A000FB68002283F83E20FB681B6C43F020027A
:1039B000FB681A64FB68002283F83C20012321E0A5
:1039C000BB681B0CDBB2012B0CD1FB681B685B696D
:1039D000DA43BB6813409BB2002B14BF01230023C2
:1039E000DBB20BE0FB681B689B69DA43BB681340E2
:1039F0009BB2002B14BF01230023DBB2002B7FF40A
:103A00006DAF002318461037BD4680BD80B584B029
:103A100000AFF860B9607A6034E0F86800F0E3F86D
:103A20000346002B01D0012334E0BB68B3F1FF3F14
:103A300028D0FEF72FFE02467B68D31ABA689A4256
:103A400002D3BB68002B1DD1FB681B685B6903F0C8
:103A50008003802B16D0FB6800221A63FB682022AB
:103A600083F83D20FB68002283F83E20FB681B6C36
:103A700043F02002FB681A64FB68002283F83C20B4
:103A8000012307E0FB681B685B6903F08003802B60
:103A9000C3D1002318461037BD4680BD80B584B021
:103AA00000AFF860B9607A6034E0F86800F09BF825
:103AB0000346002B01D0012334E0BB68B3F1FF3F84
:103AC00028D0FEF7E7FD02467B68D31ABA689A420F
:103AD00002D3BB68002B1DD1FB681B685B6903F038
:103AE0000403042B16D0FB6800221A63FB68202213
:103AF00083F83D20FB68002283F83E20FB681B6CA6
:103B000043F02002FB681A64FB68002283F83C2023
:103B1000012307E0FB681B685B6903F00403042BC7
:103B2000C3D1002318461037BD4680BD80B584B090
:103B300000AFF860B9607A6049E0FB681B685B69B8
:103B400003F01003102B19D1FB681B686FF01002F3
:103B50005A61FB6800221A63FB68202283F83D202B
:103B6000FB68002283F83E20FB681A6CFB681A642D
:103B7000FB68002283F83C20012330E0FEF78AFD39
:103B800002467B68D31ABA689A4202D3BB68002BFC
:103B90001DD1FB681B685B6903F04003402B16D006
:103BA000FB6800221A63FB68202283F83D20FB6833
:103BB000002283F83E20FB681B6C43F02002FB6868
:103BC0001A64FB68002283F83C20012307E0FB68AD
:103BD0001B685B6903F04003402BAED100231846FD
:103BE0001037BD4680BD80B483B000AF78607B687D
:103BF0001B685B6903F48063B3F5806F1BD17B683E
:103C00001B686FF480625A617B6800221A637B68CC
:103C1000202283F83D207B68002283F83E207B68C9
:103C20001B6C43F004027B681A647B68002283F8F3
:103C30003C20012300E0002318460C37BD465DF808
:103C4000047B704780B586B000AF78607B68002B3E
:103C500001D1012367E27B681B6803F00103002B9D
:103C600075D0884B9B6803F00C03042B0CD0854B5C
:103C70009B6803F00C03082B12D1824B5B6803F4A2
:103C80008003B3F5800F0BD17E4B1B6803F4003328
:103C9000002B5BD07B685B68002B57D1012342E28D
:103CA0007B685B68B3F5803F06D1764B1B68754A2D
:103CB00043F4803313601DE07B685B68B3F5A02F8D
:103CC0000CD1704B1B686F4A43F4802313606D4B1B
:103CD0001B686C4A43F4803313600BE0694B1B682C
:103CE000684A23F480331360664B1B68654A23F4EB
:103CF000802313607B685B68002B13D0FEF7CAFC3F
:103D0000386108E0FEF7C6FC02463B69D31A642B13
:103D100001D9032307E25B4B1B6803F40033002B3C
:103D2000F0D014E0FEF7B6FC386108E0FEF7B2FC14
:103D300002463B69D31A642B01D90323F3E1514BAB
:103D40001B6803F40033002BF0D100E000BF7B6858
:103D50001B6803F00203002B63D04A4B9B6803F0FF
:103D60000C03002B0BD0474B9B6803F00C03082B74
:103D70001CD1444B5B6803F48003002B16D1414BEC
:103D80001B6803F00203002B05D07B68DB68012B66
:103D900001D00123C7E13B4B1B6823F0F8027B688D
:103DA0001B69DB00374913430B603AE07B68DB6833
:103DB000002B20D0344B01221A60FEF76BFC3861D7
:103DC00008E0FEF767FC02463B69D31A022B01D9D3
:103DD0000323A8E12B4B1B6803F00203002BF0D058
:103DE000284B1B6823F0F8027B681B69DB00254920
:103DF00013430B6015E0244B00221A60FEF74AFCC7
:103E0000386108E0FEF746FC02463B69D31A022BF4
:103E100001D9032387E11B4B1B6803F00203002B2E
:103E2000F0D17B681B6803F00803002B36D07B6859
:103E30005B69002B16D0154B01221A60FEF72AFC95
:103E4000386108E0FEF726FC02463B69D31A022BD4
:103E500001D9032367E10B4B5B6F03F00203002BD7
:103E6000F0D01BE0094B00221A60FEF713FC38610A
:103E70000EE0FEF70FFC02463B69D31A022B07D96E
:103E8000032350E10038024000004742800E4742C1
:103E9000884B5B6F03F00203002BEAD17B681B6841
:103EA00003F00403002B00F097800023FB75814B87
:103EB0001B6C03F08053002B0FD10023BB607D4BA4
:103EC0001B6C7C4A43F0805313647A4B1B6C03F0E9
:103ED0008053BB60BB680123FB75774B1B6803F401
:103EE0008073002B18D1744B1B68734A43F48073A2
:103EF0001360FEF7CFFB386108E0FEF7CBFB02460C
:103F00003B69D31A022B01D903230CE16A4B1B68CE
:103F100003F48073002BF0D07B689B68012B06D1E3
:103F2000644B1B6F634A43F0010313671CE07B681B
:103F30009B68052B0CD15F4B1B6F5E4A43F004035B
:103F400013675C4B1B6F5B4A43F0010313670BE085
:103F5000584B1B6F574A23F001031367554B1B6FD8
:103F6000544A23F0040313677B689B68002B15D029
:103F7000FEF790FB38610AE0FEF78CFB02463B69D6
:103F8000D31A41F28832934201D90323CBE0494B43
:103F90001B6F03F00203002BEED014E0FEF77AFB58
:103FA00038610AE0FEF776FB02463B69D31A41F21C
:103FB0008832934201D90323B5E03E4B1B6F03F0D7
:103FC0000203002BEED1FB7D012B05D1394B1B6C7D
:103FD000384A23F0805313647B689B69002B00F000
:103FE000A180344B9B6803F00C03082B5CD07B68EA
:103FF0009B69022B41D1314B00221A60FEF74AFB2C
:10400000386108E0FEF746FB02463B69D31A022BF3
:1040100001D9032387E0274B1B6803F00073002BB3
:10402000F0D17B68DA697B681B6A1A437B685B6A3C
:104030009B011A437B689B6A5B08013B1B041A4384
:104040007B68DB6A1B061B4913434B601B4B012239
:104050001A60FEF71FFB386108E0FEF71BFB024603
:104060003B69D31A022B01D903235CE0114B1B6877
:1040700003F00073002BF0D054E0104B00221A60C4
:10408000FEF708FB386108E0FEF704FB02463B69D7
:10409000D31A022B01D9032345E0064B1B6803F01A
:1040A0000073002BF0D13DE07B689B69012B07D1A9
:1040B000012338E0003802400070004060004742B1
:1040C0001B4B5B68FB607B689B69012B28D0FB68FE
:1040D00003F480027B68DB699A4221D1FB6803F01C
:1040E0003F027B681B6A9A421AD1FA6847F6C0738E
:1040F00013407A68526A9201934211D1FB6803F42B
:1041000040327B689B6A5B08013B1B049A4207D1E3
:10411000FB6803F070627B68DB6A1B069A4201D081
:10412000012300E0002318461837BD4680BD00BFBC
:104130000038024080B584B000AF786039607B6899
:10414000002B01D10123CCE0684B1B6803F007036F
:104150003A689A420CD9654B3A68D2B21A70634BEE
:104160001B6803F007033A689A4201D00123B8E0C4
:104170007B681B6803F00203002B20D07B681B6860
:1041800003F00403002B05D0594B9B68584A43F4B5
:10419000E05393607B681B6803F00803002B05D095
:1041A000534B9B68524A43F460439360504B9B6867
:1041B00023F0F0027B689B684D4913438B607B685A
:1041C0001B6803F00103002B44D07B685B68012B64
:1041D00007D1474B1B6803F40033002B19D101238F
:1041E0007FE07B685B68022B03D07B685B68032BF6
:1041F00007D13F4B1B6803F00073002B09D101234B
:104200006FE03B4B1B6803F00203002B01D101233D
:1042100067E0374B9B6823F003027B685B68344997
:1042200013438B60FEF736FAF8600AE0FEF732FAC5
:104230000246FB68D31A41F28832934201D9032324
:104240004FE02B4B9B6803F00C027B685B689B0084
:104250009A42EBD1254B1B6803F007033A689A4258
:104260000CD2224B3A68D2B21A70204B1B6803F072
:1042700007033A689A4201D0012332E07B681B6849
:1042800003F00403002B08D0194B9B6823F4E05281
:104290007B68DB68164913438B607B681B6803F0FF
:1042A0000803002B09D0124B9B6823F460427B6803
:1042B0001B69DB000E4913438B6000F021F80246B6
:1042C0000B4B9B681B0903F00F030A49CB5C22FAD6
:1042D00003F3094A1360094B1B681846FEF796F969
:1042E000002318461037BD4680BD00BF003C024089
:1042F00000380240387A0008000000200400002046
:104300002DE9B04F90B000AF00237B630023FB6327
:1043100000233B630023BB63584B9B6803F00C03F3
:10432000082B0DD0082B00F2A080002B02D0042B0C
:1043300003D09AE0524BBB639AE0524BBB6397E0C9
:104340004E4B5B6803F03F037B634C4B5B6803F4AD
:104350008003002B27D0494B5B689B0900223B62FE
:104360007A623B6AC3F308000021464B03FB01F26B
:10437000002300FB03F31344424AA0FB0221F9622D
:10438000BA62FA6A1344FB627B6B0022BB61FA617A
:10439000D7E90623D7E90A01FCF70EFC02460B46D3
:1043A0001346FB6353E0354B5B689B0900223B617E
:1043B0007A613B69C3F3080A4FF0000B52465B4633
:1043C0004FF000004FF00001590141EAD261500165
:1043D00002460B46B2EB0A0863EB0B094FF00002F2
:1043E0004FF000034FEA891343EA98634FEA8812BB
:1043F000B2EB080463EB09054FF000024FF0000335
:10440000EB0043EA5473E20014461D4614EB0A0322
:104410003B6045EB0B037B604FF000024FF0000365
:10442000D7E9004529468B02214643EA91532146AC
:104430008A02104619467B6B0022BB60FA60D7E9FE
:104440000223FCF7B9FB02460B461346FB630B4BFA
:104450005B681B0C03F0030301335B003B63FA6BE7
:104460003B6BB2FBF3F3BB6302E0054BBB6300BFE6
:10447000BB6B18464037BD46BDE8B08F00380240E0
:104480000024F40040787D0180B400AF034B1B682A
:104490001846BD465DF8047B704700BF0000002051
:1044A00080B500AFFFF7F0FF0246054B9B689B0A03
:1044B00003F007030349CB5C22FA03F3184680BDDF
:1044C00000380240487A000880B500AFFFF7DCFFF3
:1044D0000246054B9B685B0B03F007030349CB5C6B
:1044E00022FA03F3184680BD00380240487A0008DB
:1044F00080B582B000AF78607B68002B01D10123CA
:1045000042E07B6893F84130DBB2002B06D17B6838
:10451000002283F840207868FDF7DCFE7B682422C7
:1045200083F841207B681B68DA687B681B6822F48B
:104530000052DA60786800F073F97B681B681A69CA
:104540007B681B6822F490421A617B681B685A6979
:104550007B681B6822F02A025A617B681B68DA6854
:104560007B681B6842F40052DA607B6800225A6460
:104570007B68202283F841207B68202283F8422038
:104580007B6800225A63002318460837BD4680BD69
:1045900080B58AB002AFF860B9603B601346FB801B
:1045A00000237B61FB6893F84130DBB2202B75D18F
:1045B000BB68002B02D0FB88002B01D101236EE0E9
:1045C000FB6800225A64FB68212283F84120FEF731
:1045D00061F87861FB68FA889A84FB68FA88DA8463
:1045E000FB689B68B3F5805F08D1FB681B69002BF3
:1045F00004D10023FB61BB68BB6103E0BB68FB61C6
:104600000023BB612EE03B6800937B690022802180
:10461000F86800F048F80346002B05D0FB6820221C
:1046200083F8412003233AE0FB69002B0BD1BB69DF
:104630001B881A46FB681B68C2F308025A60BB69F4
:104640000233BB6107E0FB691A78FB681B685A609C
:10465000FB690133FB61FB68DB8C9BB2013B9AB2C7
:10466000FB68DA84FB68DB8C9BB2002BCBD13B6808
:1046700000937B6900224021F86800F014F803469B
:10468000002B05D0FB68202283F84120032306E09D
:10469000FB68202283F84120002300E00223184613
:1046A0002037BD4680BD80B586B000AFF860B960E8
:1046B0003B601346FB713BE03B6AB3F1FF3F37D0F1
:1046C000FDF7E8FF02463B68D31A3A6A9A4202D3E2
:1046D0003B6A002B01D103233AE0FB681B68DB68CF
:1046E00003F00403002B23D0BB68802B20D0BB68D1
:1046F000402B1DD0FB681B681B6803F00803082BC8
:1047000016D100237B61FB681B681B687B61FB681B
:104710001B685B687B617B69F86800F01DF8FB68CB
:1047200008225A64FB68002283F8402001230FE02E
:10473000FB681B681A68BB681340BA689A420CBFD2
:1047400001230023DBB21A46FB799A42B4D000233E
:1047500018461837BD4680BD80B495B000AF78606C
:104760007B681B680C337B637B6B53E8003F3B63C8
:104770003B6B23F49073FB647B681B680C33FA6C0F
:104780003A64FB63F96B3A6C41E80023BB63BB6B93
:10479000002BE5D17B681B6814333B623B6A53E80E
:1047A000003FFB61FB6923F00103BB647B681B686E
:1047B0001433BA6CFA62BB62B96AFA6A41E8002340
:1047C0007B627B6A002BE5D17B681B6B012B19D1C7
:1047D0007B681B680C33FB60FB6853E8003FBB60E1
:1047E000BB6823F010037B647B681B680C337A6C16
:1047F000BA617B617969BA6941E800233B613B6931
:10480000002BE5D17B68202283F842207B680022C0
:104810001A6300BF5437BD465DF8047B7047000043
:104820002DE9B04FC0B000AFC7F8F400D7F8F430AE
:104830001B681B6923F44050D7F8F430D968D7F8C7
:10484000F4301A6840EA01031361D7F8F4309A682B
:10485000D7F8F4301B691A43D7F8F4305B691A4370
:10486000D7F8F430DB691343C7F8F830D7F8F430E1
:104870001B68DB6823F4164121F00C01D7F8F430F3
:104880001A68D7F8F8300B43D360D7F8F4301B68B8
:104890005B6923F44070D7F8F4309969D7F8F430A5
:1048A0001A6840EA01035361D7F8F4301A688F4B55
:1048B0009A4205D0D7F8F4301A688D4B9A4204D149
:1048C000FFF702FEC7F8FC0003E0FFF7E9FDC7F8B9
:1048D000FC00D7F8F430DB69B3F5004F40F00C81F1
:1048E000D7F8FC300022C7F8E830C7F8EC20D7E949
:1048F0003A4522462B469118B9655B41FB65D7E9DD
:104900001623214612EB0108294643EB01094FF01B
:1049100000024FF000034FEAC90343EA58734FEA1D
:10492000C80290469946234618EB0303C7F8E030C7
:104930002B4649EB0303C7F8E430D7F8F4305B6843
:104940000022C7F8D830C7F8DC20D7E936120B466A
:10495000DB183B65134642EB03037B65D7E9142361
:10496000D7E93801FCF728F902460B46614BA3FB57
:1049700002235B091C01D7F8FC300022C7F8D030B5
:10498000C7F8D420D7E9348942464B469118B96418
:104990005B41FB64D7E91223414612EB010A494609
:1049A00043EB010B4FF000024FF000034FEACB0343
:1049B00043EA5A734FEACA0292469B4643461AEBB1
:1049C0000303C7F8C8304B464BEB0303C7F8CC30A2
:1049D000D7F8F4305B680022C7F8C030C7F8C420AD
:1049E000D7E930120B46DB183B64134642EB030356
:1049F0007B64D7E91023D7E93201FCF7DDF80246E2
:104A00000B4611463B4BA3FB01235B09642202FBCF
:104A100003F3CB1ADB0003F13202364BA3FB022374
:104A20005B095B0003F4F8731C44D7F8FC300022E8
:104A3000C7F8B830C7F8BC20D7E92E8942464B46A4
:104A40009118B9635B41FB63D7E90E2341465118C6
:104A5000396349464B417B634FF000024FF000033E
:104A6000D7E90CAB5946CB00514643EA5173514646
:104A7000CA0010461946034642469B18C7F8B03094
:104A80004B460A4642EB0303C7F8B430D7F8F4307C
:104A90005B680022C7F8A830C7F8AC20D7E92A1213
:104AA0000B46DB18BB62134642EB0303FB62D7E9FC
:104AB0000A23D7E92C01FCF77FF802460B460D4B81
:104AC000A3FB02135B09642101FB03F3D31ADB0090
:104AD0003233084AA2FB03235B0903F00702D7F82D
:104AE000F4301B6822449A6006E100BF00100140C8
:104AF000001401401F85EB51D7F8FC300022C7F8A5
:104B0000A030C7F8A420D7E9288942464B4691181F
:104B100039625B417B62D7E9082341465418494614
:104B200043EB01054FF000024FF00003EB0043EAB6
:104B30005473E20014461D464346E318C7F8983004
:104B40004B4645EB0303C7F89C30D7F8F4305B685D
:104B50000022C7F89030C7F894204FF000024FF0C1
:104B60000003D7E9244529468B00214643EA917387
:104B700021468A00D7E92601FCF71EF802460B46BB
:104B8000604BA3FB02235B091C01D7F8FC30002219
:104B9000C7F88830C7F88C20D7E9228942464B46AF
:104BA0009118B9615B41FB61D7E906234146511871
:104BB000396149464B417B614FF000024FF00003E1
:104BC000D7E904AB5946CB00514643EA51735146ED
:104BD000CA0010461946034642469B18C7F8803063
:104BE0004B460A4642EB0303C7F88430D7F8F4304B
:104BF0005B680022BB67FA674FF000024FF00003CA
:104C0000D7E91E8949468B00414643EA91734146E4
:104C10008A00D7E92001FBF7CFFF02460B46114679
:104C2000384BA3FB01235B09642202FB03F3CB1A7D
:104C30001B013233334AA2FB03235B0903F0F00369
:104C40001C44D7F8FC3000223B677A67D7E91C89FF
:104C500042464B469118B9605B41FB60D7E902239D
:104C600041465118396049464B417B604FF0000284
:104C70004FF00003D7E900AB5946CB00514643EA59
:104C800051735146CA0010461946034642469B18C6
:104C9000BB664B460A4642EB0303FB66D7F8F4308B
:104CA0005B6800223B667A664FF000024FF000031B
:104CB000D7E9188949468B00414643EA917341463A
:104CC0008A00D7E91A01FBF777FF02460B460D4B26
:104CD000A3FB02135B09642101FB03F3D31A1B013D
:104CE0003233084AA2FB03235B0903F00F02D7F813
:104CF000F4301B6822449A6000BF07F58077BD46F8
:104D0000BDE8B08F1F85EB512DE9FF4757EC106BC5
:104D1000002F0C4619463B46BBBF07F100431F4618
:104D200000232D230B700D9BDDF830A0914623F05E
:104D30002008BCBF32461646B8F1460F05D0B8F180
:104D4000450F00D10134022100E0032103AB0193A0
:104D500002AB009347EC106B5346224600F064FE12
:104D6000B8F1470F054619D119F0010F0ED000EB2D
:104D700004090022002330463946FBF7ADFE08B196
:104D8000CDF80C903022039B4B451ED3039B0E9A0B
:104D90005B1B2846136004B0BDE8F087B8F1460FEE
:104DA00000EB0409E5D10378302B0AD1002200235F
:104DB00030463946FBF790FE18B9C4F10104CAF831
:104DC0000040DAF800309944D3E7591C03911A7077
:104DD000D9E7F7B50029BABF49422D232B2309296A
:104DE0000270437029DD0DF1070425460A2722468B
:104DF000B1FBF7F607FB1613303302F8013C0B4604
:104E0000632B04F1FF343146F1DC3031931E04F89A
:104E1000011C411C1C46AB420AD30DF109039B1A2D
:104E2000A54238BF0023821C1344181A03B0F0BDFA
:104E300013F8016B01F8016FEDE730233031837017
:104E4000C170031DF1E700002DE9F04F8DB00C4655
:104E5000DDF8588016461F46054600F0E3FC03685F
:104E600006931846FBF70CFA00230A93D8F8003093
:104E700094F818A0D4F800B00790073323F0070384
:104E8000B3EC027B8DED047BC8F80030DDE90483D0
:104E900023F0004984ED127B9C4B4FF0FF324046DB
:104EA0004946FBF74BFE70BB984B4FF0FF32404634
:104EB0004946FBF725FE30BBDDE904010022002353
:104EC000FBF714FE10B12D2384F84330904A914B28
:104ED000BAF1470F8CBF90469846032323612BF00D
:104EE000040323604FF00009009733460BAA2146C4
:104EF000284600F0D1F9013040F08C804FF0FF30AF
:104F00000DB0BDE8F08FDDE9042310461946FBF72C
:104F100015FE40B1059B804A002BBCBF2D2384F8B1
:104F200043307E4BD4E763685A1C0AF0DF093BD15B
:104F3000062363604BF480620023226003930AAB74
:104F4000CDE901A309AB009361689DED040B0DF160
:104F500023032846FFF7D8FEB9F1470F0999804689
:104F600029D1C81C02DB63688B4241DAAAF1020A2C
:104F70005FFA8AFA0139524604F150000991FFF7AD
:104F800028FF0A9A1318012A8146236102DC22684D
:104F9000D20701D5013323619DF82330002BA3D024
:104FA0002D2384F843309FE7B9F1470FC2D1002B7E
:104FB000C0D10123BDE7BAF1650FDBD9BAF1660FA5
:104FC00018D1002963680BDD216113B92268D0076D
:104FD00002D501330B442361A1654FF00009DBE7E3
:104FE00013B92268D20701D50233F4E70123F2E7AF
:104FF0004FF0670A0A9B8B4205DC23682161D807C2
:10500000EAD54B1CE7E70029D4BFC1F10202012217
:105010001344E0E723685A0507D423694246314622
:105020002846B84701302BD168E7BAF1650F40F246
:10503000DD80D4E9120100220023FBF74DFD00289A
:1050400033D0374A012331462846B84701303FF470
:1050500055AFDDE90938434502DB2368D8070FD592
:10506000DDE9062331462846B84701303FF446AF14
:105070004FF0000908F1FF3804F11A0AC84509DCAD
:1050800023689B0700F10381E0680B9B9842B8BF3F
:10509000184635E70123524631462846B8470130C5
:1050A0003FF42CAF09F10109E8E7099B002B39DC3B
:1050B0001B4A012331462846B84701303FF41EAF52
:1050C000DDE9093959EA030302D12368D907D7D5A5
:1050D000DDE9062331462846B84701303FF40EAFDC
:1050E0004FF0000A04F11A0B099B5B42534501DCA7
:1050F0004B4693E701235A4631462846B8470130CC
:105100003FF4FCAE0AF1010AEEE700BFFFFFEF7FBC
:10511000547A0008507A00085C7A0008587A00082F
:10512000607A0008A36DDDF828A05345A8BF534658
:10513000002B994636DC4FF0000B29EAE97904F19F
:105140001A02A36D0493A3EB09035B4531DC099BB1
:105150009A453ADC2368DA0737D4099BAAEB03099E
:10516000049BAAEB03039945A8BF9946B9F1000F28
:1051700033DC4FF0000829EAE97904F11A0B099BA6
:10518000AAEB0303A3EB090343457FF779AF0123A0
:105190005A4631462846B84701303FF4AFAE08F1D1
:1051A0000108ECE7424631462846B8470130C2D1F3
:1051B000A4E60123314628460492B84701303FF463
:1051C0009DAE049A0BF1010BBBE7DDE906233146E6
:1051D0002846B8470130C0D190E6049A4B46424475
:1051E00031462846B8470130C3D187E6DDF828A00C
:1051F000BAF1010F01DCDB0736D501234246314607
:105200002846B84701303FF479AEDDE90623314640
:105210002846B84701303FF471AED4E912010022AC
:1052200000230AF1FF3AFBF757FCC0B9534608F1D7
:10523000010231462846B84701300CD15EE6012311
:105240005A4631462846B84701303FF457AE08F178
:105250000108D045F3DB4B4604F15002DFE64FF086
:10526000000804F11A0BF4E701234246E1E70123A9
:105270004A4631462846B84701303FF43FAE08F170
:105280000108E3680B995B1A4345F0DCFCE64FF03C
:10529000000804F11909F4E72DE9F047164698468D
:1052A0008A680B69DDF820909342B8BF13463360DB
:1052B00091F8432007460C460AB101333360236856
:1052C000990642BF336802333360256815F006053E
:1052D00006D104F1190AE36832689B1AAB4226DC56
:1052E00094F843302268003B18BF012392062BD468
:1052F00004F1430241463846C84701301ED02368B6
:10530000226903F00603042B02BFE5683368ED1A37
:10531000A3680CBF25EAE57500259342C4BF9B1A1C
:10532000ED1800261A34B5421AD1002008E00123F6
:10533000524641463846C847013003D14FF0FF304E
:10534000BDE8F0870135C6E7E1185A1C302081F826
:105350004300224494F8451082F843100233C7E713
:105360000123224641463846C8470130E6D001367F
:10537000D9E700002DE9F0430D7E85B0782D9046E9
:105380000C9E07460C46994601F1430207D8622D50
:105390000AD8002D00F0D780582D00F0BC8004F111
:1053A000420684F842503BE0A5F16303152BF6D882
:1053B00001A151F823F000BF115400082554000842
:1053C0009F5300089F5300089F5300089F530008F5
:1053D000255400089F5300089F5300089F5300085E
:1053E0009F5300082D5500084F540008DF54000853
:1053F0009F5300089F5300084F5500089F53000813
:105400004F5400089F5300089F530008E7540008BA
:1054100033681A1D1B68326004F1420684F842307A
:105420000123A1E033682068191D3160060601D50B
:105430001D6803E04506FBD5B3F90050002D03DAE3
:105440002D236D4284F843305B480A2311E0216824
:105450003368080653F8045B02D4490648BFADB26E
:105460003360237E54486F2B5CD10823002184F8DD
:1054700043106668A660002E05DB21682E4321F0EC
:105480000401216050D01646B5FBF3F103FB115C1B
:1054900010F80CC006F801CDAC4663450D46F3D9B3
:1054A000082B0BD12368DB0708D523696168994273
:1054B000DEBF302306F8013C06F1FF36921B226165
:1054C000CDF80090434603AA21463846FFF7E4FE94
:1054D00001304ED14FF0FF3005B0BDE8F0832368B6
:1054E00043F0200323603548782584F8455023682D
:1054F000316813F0800F51F8045B03D113F0400FB3
:1055000018BFADB23160D90744BF43F02003236018
:105510001DB11023AAE72848E7E7236823F02003FA
:105520002360F6E70A23A1E71646B9E73368256842
:105530006169181D30602E061B6801D5196002E0F4
:105540006806FBD51980002323611646B8E7336847
:105550001A1D32601E68626800213046FAF740FE6C
:1055600008B1801B606063682361002384F84330C6
:10557000A6E72369324641463846C8470130A9D0DC
:1055800023689B0713D4E068039B9842B8BF184672
:10559000A2E70123324641463846C847013099D038
:1055A0000135E36803995B1AAB42F2DCEBE70025B7
:1055B00004F11906F5E700BF627A0008737A000863
:1055C000002310B50446C0E90033C0E9043383600A
:1055D00081814366C2818361194608225C3000F0F4
:1055E00019F90D4B63620D4BA3620D4BE3620D4B3A
:1055F00023630D4B24629C4206D003F1680294425F
:1056000002D0D0339C4205D104F15800BDE81040CF
:1056100000F07CB910BD00BF8D570008AF570008DF
:10562000E75700080D580008F0020020024A03491D
:10563000034800F06BB800BF0C000020A572000802
:105640001C00002041680C4B994210B5044601D063
:1056500001F028FEA168094B994202D0204601F0D2
:1056600021FEE168064B994204D02046BDE8104077
:1056700001F018BE10BD00BFF0020020580300204A
:10568000C00300200C4B0D4A0D4810B504211A60D0
:105690000022FFF795FF0A4B01221C46092103F166
:1056A0006800FFF78DFF04F1D0000222BDE8104032
:1056B0001221FFF785BF00BF280400202D560008E7
:1056C000F0020020014800F022B900BF31040020A0
:1056D000014800F01DB900BF3104002010B5044698
:1056E000FFF7F0FF236A1BB1BDE81040FFF7F0BFE2
:1056F000044B2362044B1B68002BF5D1FFF7C2FF5C
:10570000F2E700BF45560008280400202DE9F843C1
:105710000746884614460026D4E90195B9F10109E7
:1057200005D52468002CF7D13046BDE8F883AB8955
:10573000012B07D9B5F90E30013303D0294638467D
:10574000C04706436835E9E70EB410B59DB01FABFE
:10575000029006906FF000410A48079104910A49AF
:1057600053F8042B0591002402A9006801931B94AF
:1057700001F01EFC029B1C701DB0BDE8104003B080
:10578000704700BF180000200802FFFF10B50C464C
:10579000B1F90E1000F06CF80028ABBF636DA3895F
:1057A0001B1823F48053ACBF6365A38110BD2DE9A2
:1057B000F0411F468B89DB0505460C46164605D58C
:1057C000B1F90E100223002200F040F8A389B4F9C9
:1057D0000E1023F48053A38132463B462846BDE891
:1057E000F04100F057B810B50C46B1F90E1000F0BA
:1057F0002DF8B4F90C30421C0BBF23F4805343F452
:105800008053A381A38118BF606510BDB1F90E104C
:1058100000F00CB802440346934200D1704703F8ED
:10582000011BF9E7004870475801002038B5064DC4
:105830000023044608462B60FCF71FFE431C02D1E0
:105840002B6803B1236038BD2C04002038B5074D08
:1058500004460846114600222A601A46FCF734FE28
:10586000431C02D12B6803B1236038BD2C040020F7
:1058700038B5074D04460846114600222A601A46EC
:10588000FCF7C2FD431C02D12B6803B1236038BD75
:105890002C04002038B5074D044608461146002266
:1058A0002A601A46FCF7CDFD431C02D12B6803B1D8
:1058B000236038BD2C040020014B1868704700BFDE
:1058C0001800002070B50D4B0D4D5B1B9C10002681
:1058D000A64209D102F07AF80A4D0B4B5B1B9C10D3
:1058E0000026A64205D170BD55F8043B9847013605
:1058F000EEE755F8043B98470136F2E7CC7D000807
:10590000CC7D0008CC7D0008D07D00087047704732
:1059100070472DE9F74F03690C69A34207467EDB08
:10592000013C01F11408A30000F11405009305EBFC
:105930008403019358F8243055F8242001339A4207
:1059400008EB8409B2FBF3F62ED34FF0000AC446ED
:10595000AE46D3465CF8043B98B206FB00A0020CAE
:105960001B0C06FB0323DEF8002080B292B2121A51
:105970005A44DEF800004FEA134A9BB2C3EB2243BD
:1059800003EB104392B242EA0342E1454EF8042B86
:105990004FEA234BDED2009BEB582BB9019B043B13
:1059A0009D421A462FD33C61384601F095F90028F4
:1059B00025DB2946002058F8042BD1F800C01FFA37
:1059C00082FE1FFA8CF3A3EB0E030344120CC2EB0E
:1059D000234202EB1C429BB243EA0243C14541F819
:1059E000043B4FEA2240E6D255F8242005EB84031D
:1059F00022B9043B9D421A460BD33C610136304626
:105A000003B0BDE8F08F1268043B002ACBD1013C03
:105A1000C6E71268043B002AEFD1013CEAE7002008
:105A2000EEE70000000000002DE9F04F99B08DED89
:105A30000E0B0C92C269229C0A9157EC106B8146A6
:105A4000139382B9102000F015FE0246C9F81C001D
:105A500020B9AB4BEF21AB4801F084FC0023C0E937
:105A600001330360C360116859B152684A60012371
:105A700093408B60484600F0F1FED9F81C300022BC
:105A80001A60B7F10008B5BF01230023236023602B
:105A90009D4BBCBF28F00048CDF83C8033EA08039A
:105AA0001AD1139AC8F3130842F20F7358EA060882
:105AB000136000F06885239B53B9944B21E0944B0D
:105AC00000930833239A1360009819B0BDE8F08F53
:105AD0008E4B00930333F5E79DED0E7B002251ECD6
